{
  "_format": "hh-sol-artifact-1",
  "contractName": "Zyggos4Ukraine",
  "sourceName": "contracts/Zyggos4Ukraine.sol",
  "abi": [
    {
      "inputs": [
        {
          "internalType": "string",
          "name": "_tokenName",
          "type": "string"
        },
        {
          "internalType": "string",
          "name": "_tokenSymbol",
          "type": "string"
        },
        {
          "internalType": "uint256",
          "name": "_cost",
          "type": "uint256"
        },
        {
          "internalType": "uint256",
          "name": "_maxSupply",
          "type": "uint256"
        },
        {
          "internalType": "uint256",
          "name": "_maxMintAmountPerTx",
          "type": "uint256"
        },
        {
          "internalType": "uint256",
          "name": "_maxMintAmountOwner",
          "type": "uint256"
        },
        {
          "internalType": "string",
          "name": "_hiddenMetadataUri",
          "type": "string"
        }
      ],
      "stateMutability": "nonpayable",
      "type": "constructor"
    },
    {
      "inputs": [],
      "name": "ApprovalCallerNotOwnerNorApproved",
      "type": "error"
    },
    {
      "inputs": [],
      "name": "ApprovalQueryForNonexistentToken",
      "type": "error"
    },
    {
      "inputs": [],
      "name": "ApprovalToCurrentOwner",
      "type": "error"
    },
    {
      "inputs": [],
      "name": "ApproveToCaller",
      "type": "error"
    },
    {
      "inputs": [],
      "name": "BalanceQueryForZeroAddress",
      "type": "error"
    },
    {
      "inputs": [],
      "name": "MintToZeroAddress",
      "type": "error"
    },
    {
      "inputs": [],
      "name": "MintZeroQuantity",
      "type": "error"
    },
    {
      "inputs": [],
      "name": "OwnerQueryForNonexistentToken",
      "type": "error"
    },
    {
      "inputs": [],
      "name": "TransferCallerNotOwnerNorApproved",
      "type": "error"
    },
    {
      "inputs": [],
      "name": "TransferFromIncorrectOwner",
      "type": "error"
    },
    {
      "inputs": [],
      "name": "TransferToNonERC721ReceiverImplementer",
      "type": "error"
    },
    {
      "inputs": [],
      "name": "TransferToZeroAddress",
      "type": "error"
    },
    {
      "anonymous": false,
      "inputs": [
        {
          "indexed": true,
          "internalType": "address",
          "name": "owner",
          "type": "address"
        },
        {
          "indexed": true,
          "internalType": "address",
          "name": "approved",
          "type": "address"
        },
        {
          "indexed": true,
          "internalType": "uint256",
          "name": "tokenId",
          "type": "uint256"
        }
      ],
      "name": "Approval",
      "type": "event"
    },
    {
      "anonymous": false,
      "inputs": [
        {
          "indexed": true,
          "internalType": "address",
          "name": "owner",
          "type": "address"
        },
        {
          "indexed": true,
          "internalType": "address",
          "name": "operator",
          "type": "address"
        },
        {
          "indexed": false,
          "internalType": "bool",
          "name": "approved",
          "type": "bool"
        }
      ],
      "name": "ApprovalForAll",
      "type": "event"
    },
    {
      "anonymous": false,
      "inputs": [
        {
          "indexed": true,
          "internalType": "address",
          "name": "previousOwner",
          "type": "address"
        },
        {
          "indexed": true,
          "internalType": "address",
          "name": "newOwner",
          "type": "address"
        }
      ],
      "name": "OwnershipTransferred",
      "type": "event"
    },
    {
      "anonymous": false,
      "inputs": [
        {
          "indexed": true,
          "internalType": "address",
          "name": "from",
          "type": "address"
        },
        {
          "indexed": true,
          "internalType": "address",
          "name": "to",
          "type": "address"
        },
        {
          "indexed": true,
          "internalType": "uint256",
          "name": "tokenId",
          "type": "uint256"
        }
      ],
      "name": "Transfer",
      "type": "event"
    },
    {
      "inputs": [
        {
          "internalType": "address",
          "name": "to",
          "type": "address"
        },
        {
          "internalType": "uint256",
          "name": "tokenId",
          "type": "uint256"
        }
      ],
      "name": "approve",
      "outputs": [],
      "stateMutability": "nonpayable",
      "type": "function"
    },
    {
      "inputs": [
        {
          "internalType": "address",
          "name": "owner",
          "type": "address"
        }
      ],
      "name": "balanceOf",
      "outputs": [
        {
          "internalType": "uint256",
          "name": "",
          "type": "uint256"
        }
      ],
      "stateMutability": "view",
      "type": "function"
    },
    {
      "inputs": [],
      "name": "cost",
      "outputs": [
        {
          "internalType": "uint256",
          "name": "",
          "type": "uint256"
        }
      ],
      "stateMutability": "view",
      "type": "function"
    },
    {
      "inputs": [],
      "name": "displayOwnerSupply",
      "outputs": [
        {
          "internalType": "uint256",
          "name": "",
          "type": "uint256"
        }
      ],
      "stateMutability": "view",
      "type": "function"
    },
    {
      "inputs": [
        {
          "internalType": "uint256",
          "name": "tokenId",
          "type": "uint256"
        }
      ],
      "name": "getApproved",
      "outputs": [
        {
          "internalType": "address",
          "name": "",
          "type": "address"
        }
      ],
      "stateMutability": "view",
      "type": "function"
    },
    {
      "inputs": [],
      "name": "hiddenMetadataUri",
      "outputs": [
        {
          "internalType": "string",
          "name": "",
          "type": "string"
        }
      ],
      "stateMutability": "view",
      "type": "function"
    },
    {
      "inputs": [
        {
          "internalType": "address",
          "name": "owner",
          "type": "address"
        },
        {
          "internalType": "address",
          "name": "operator",
          "type": "address"
        }
      ],
      "name": "isApprovedForAll",
      "outputs": [
        {
          "internalType": "bool",
          "name": "",
          "type": "bool"
        }
      ],
      "stateMutability": "view",
      "type": "function"
    },
    {
      "inputs": [],
      "name": "maxMintAmountOwner",
      "outputs": [
        {
          "internalType": "uint256",
          "name": "",
          "type": "uint256"
        }
      ],
      "stateMutability": "view",
      "type": "function"
    },
    {
      "inputs": [],
      "name": "maxMintAmountPerTx",
      "outputs": [
        {
          "internalType": "uint256",
          "name": "",
          "type": "uint256"
        }
      ],
      "stateMutability": "view",
      "type": "function"
    },
    {
      "inputs": [],
      "name": "maxSupply",
      "outputs": [
        {
          "internalType": "uint256",
          "name": "",
          "type": "uint256"
        }
      ],
      "stateMutability": "view",
      "type": "function"
    },
    {
      "inputs": [],
      "name": "merkleRoot",
      "outputs": [
        {
          "internalType": "bytes32",
          "name": "",
          "type": "bytes32"
        }
      ],
      "stateMutability": "view",
      "type": "function"
    },
    {
      "inputs": [
        {
          "internalType": "uint256",
          "name": "_mintAmount",
          "type": "uint256"
        }
      ],
      "name": "mint",
      "outputs": [],
      "stateMutability": "payable",
      "type": "function"
    },
    {
      "inputs": [
        {
          "internalType": "uint256",
          "name": "_mintAmount",
          "type": "uint256"
        },
        {
          "internalType": "address",
          "name": "_receiver",
          "type": "address"
        }
      ],
      "name": "mintForAddress",
      "outputs": [],
      "stateMutability": "nonpayable",
      "type": "function"
    },
    {
      "inputs": [],
      "name": "name",
      "outputs": [
        {
          "internalType": "string",
          "name": "",
          "type": "string"
        }
      ],
      "stateMutability": "view",
      "type": "function"
    },
    {
      "inputs": [],
      "name": "owner",
      "outputs": [
        {
          "internalType": "address",
          "name": "",
          "type": "address"
        }
      ],
      "stateMutability": "view",
      "type": "function"
    },
    {
      "inputs": [
        {
          "internalType": "uint256",
          "name": "tokenId",
          "type": "uint256"
        }
      ],
      "name": "ownerOf",
      "outputs": [
        {
          "internalType": "address",
          "name": "",
          "type": "address"
        }
      ],
      "stateMutability": "view",
      "type": "function"
    },
    {
      "inputs": [],
      "name": "paused",
      "outputs": [
        {
          "internalType": "bool",
          "name": "",
          "type": "bool"
        }
      ],
      "stateMutability": "view",
      "type": "function"
    },
    {
      "inputs": [],
      "name": "renounceOwnership",
      "outputs": [],
      "stateMutability": "nonpayable",
      "type": "function"
    },
    {
      "inputs": [],
      "name": "revealed",
      "outputs": [
        {
          "internalType": "bool",
          "name": "",
          "type": "bool"
        }
      ],
      "stateMutability": "view",
      "type": "function"
    },
    {
      "inputs": [
        {
          "internalType": "address",
          "name": "from",
          "type": "address"
        },
        {
          "internalType": "address",
          "name": "to",
          "type": "address"
        },
        {
          "internalType": "uint256",
          "name": "tokenId",
          "type": "uint256"
        }
      ],
      "name": "safeTransferFrom",
      "outputs": [],
      "stateMutability": "nonpayable",
      "type": "function"
    },
    {
      "inputs": [
        {
          "internalType": "address",
          "name": "from",
          "type": "address"
        },
        {
          "internalType": "address",
          "name": "to",
          "type": "address"
        },
        {
          "internalType": "uint256",
          "name": "tokenId",
          "type": "uint256"
        },
        {
          "internalType": "bytes",
          "name": "_data",
          "type": "bytes"
        }
      ],
      "name": "safeTransferFrom",
      "outputs": [],
      "stateMutability": "nonpayable",
      "type": "function"
    },
    {
      "inputs": [
        {
          "internalType": "address",
          "name": "operator",
          "type": "address"
        },
        {
          "internalType": "bool",
          "name": "approved",
          "type": "bool"
        }
      ],
      "name": "setApprovalForAll",
      "outputs": [],
      "stateMutability": "nonpayable",
      "type": "function"
    },
    {
      "inputs": [
        {
          "internalType": "uint256",
          "name": "_cost",
          "type": "uint256"
        }
      ],
      "name": "setCost",
      "outputs": [],
      "stateMutability": "nonpayable",
      "type": "function"
    },
    {
      "inputs": [
        {
          "internalType": "string",
          "name": "_hiddenMetadataUri",
          "type": "string"
        }
      ],
      "name": "setHiddenMetadataUri",
      "outputs": [],
      "stateMutability": "nonpayable",
      "type": "function"
    },
    {
      "inputs": [
        {
          "internalType": "uint256",
          "name": "_maxMintAmountPerTx",
          "type": "uint256"
        }
      ],
      "name": "setMaxMintAmountPerTx",
      "outputs": [],
      "stateMutability": "nonpayable",
      "type": "function"
    },
    {
      "inputs": [
        {
          "internalType": "bytes32",
          "name": "_merkleRoot",
          "type": "bytes32"
        }
      ],
      "name": "setMerkleRoot",
      "outputs": [],
      "stateMutability": "nonpayable",
      "type": "function"
    },
    {
      "inputs": [
        {
          "internalType": "bool",
          "name": "_state",
          "type": "bool"
        }
      ],
      "name": "setPaused",
      "outputs": [],
      "stateMutability": "nonpayable",
      "type": "function"
    },
    {
      "inputs": [
        {
          "internalType": "bool",
          "name": "_state",
          "type": "bool"
        }
      ],
      "name": "setRevealed",
      "outputs": [],
      "stateMutability": "nonpayable",
      "type": "function"
    },
    {
      "inputs": [
        {
          "internalType": "string",
          "name": "_uriPrefix",
          "type": "string"
        }
      ],
      "name": "setUriPrefix",
      "outputs": [],
      "stateMutability": "nonpayable",
      "type": "function"
    },
    {
      "inputs": [
        {
          "internalType": "string",
          "name": "_uriSuffix",
          "type": "string"
        }
      ],
      "name": "setUriSuffix",
      "outputs": [],
      "stateMutability": "nonpayable",
      "type": "function"
    },
    {
      "inputs": [
        {
          "internalType": "bool",
          "name": "_state",
          "type": "bool"
        }
      ],
      "name": "setWhitelistMintEnabled",
      "outputs": [],
      "stateMutability": "nonpayable",
      "type": "function"
    },
    {
      "inputs": [
        {
          "internalType": "bytes4",
          "name": "interfaceId",
          "type": "bytes4"
        }
      ],
      "name": "supportsInterface",
      "outputs": [
        {
          "internalType": "bool",
          "name": "",
          "type": "bool"
        }
      ],
      "stateMutability": "view",
      "type": "function"
    },
    {
      "inputs": [],
      "name": "symbol",
      "outputs": [
        {
          "internalType": "string",
          "name": "",
          "type": "string"
        }
      ],
      "stateMutability": "view",
      "type": "function"
    },
    {
      "inputs": [
        {
          "internalType": "uint256",
          "name": "_tokenId",
          "type": "uint256"
        }
      ],
      "name": "tokenURI",
      "outputs": [
        {
          "internalType": "string",
          "name": "",
          "type": "string"
        }
      ],
      "stateMutability": "view",
      "type": "function"
    },
    {
      "inputs": [],
      "name": "totalSupply",
      "outputs": [
        {
          "internalType": "uint256",
          "name": "",
          "type": "uint256"
        }
      ],
      "stateMutability": "view",
      "type": "function"
    },
    {
      "inputs": [
        {
          "internalType": "address",
          "name": "from",
          "type": "address"
        },
        {
          "internalType": "address",
          "name": "to",
          "type": "address"
        },
        {
          "internalType": "uint256",
          "name": "tokenId",
          "type": "uint256"
        }
      ],
      "name": "transferFrom",
      "outputs": [],
      "stateMutability": "nonpayable",
      "type": "function"
    },
    {
      "inputs": [
        {
          "internalType": "address",
          "name": "newOwner",
          "type": "address"
        }
      ],
      "name": "transferOwnership",
      "outputs": [],
      "stateMutability": "nonpayable",
      "type": "function"
    },
    {
      "inputs": [],
      "name": "uriPrefix",
      "outputs": [
        {
          "internalType": "string",
          "name": "",
          "type": "string"
        }
      ],
      "stateMutability": "view",
      "type": "function"
    },
    {
      "inputs": [],
      "name": "uriSuffix",
      "outputs": [
        {
          "internalType": "string",
          "name": "",
          "type": "string"
        }
      ],
      "stateMutability": "view",
      "type": "function"
    },
    {
      "inputs": [
        {
          "internalType": "address",
          "name": "_owner",
          "type": "address"
        }
      ],
      "name": "walletOfOwner",
      "outputs": [
        {
          "internalType": "uint256[]",
          "name": "",
          "type": "uint256[]"
        }
      ],
      "stateMutability": "view",
      "type": "function"
    },
    {
      "inputs": [
        {
          "internalType": "address",
          "name": "",
          "type": "address"
        }
      ],
      "name": "whitelistClaimed",
      "outputs": [
        {
          "internalType": "bool",
          "name": "",
          "type": "bool"
        }
      ],
      "stateMutability": "view",
      "type": "function"
    },
    {
      "inputs": [
        {
          "internalType": "uint256",
          "name": "_mintAmount",
          "type": "uint256"
        },
        {
          "internalType": "bytes32[]",
          "name": "_merkleProof",
          "type": "bytes32[]"
        }
      ],
      "name": "whitelistMint",
      "outputs": [],
      "stateMutability": "payable",
      "type": "function"
    },
    {
      "inputs": [],
      "name": "whitelistMintEnabled",
      "outputs": [
        {
          "internalType": "bool",
          "name": "",
          "type": "bool"
        }
      ],
      "stateMutability": "view",
      "type": "function"
    },
    {
      "inputs": [],
      "name": "withdraw",
      "outputs": [],
      "stateMutability": "nonpayable",
      "type": "function"
    }
  ],
  "bytecode": "0x60a06040819052600060808190526200001b91600c91620004f4565b5060408051808201909152600580825264173539b7b760d91b60209092019182526200004a91600d91620004f4565b506013805462ffffff191660011790553480156200006757600080fd5b5060405162002ed338038062002ed38339810160408190526200008a9162000670565b865187908790620000a3906002906020850190620004f4565b508051620000b9906003906020840190620004f4565b5050600160005550620000cc336200011b565b6001600955600f85905560108490556011839055620000eb816200016d565b60128290556200010e620001076008546001600160a01b031690565b83620001e5565b50505050505050620007ee565b600880546001600160a01b038381166001600160a01b0319831681179093556040519116919082907f8be0079c531659141344cd1fd0a4f28419497f9722a3daafe3b4186f6b6457e090600090a35050565b6008546001600160a01b03163314620001cc5760405162461bcd60e51b815260206004820181905260248201527f4f776e61626c653a2063616c6c6572206973206e6f7420746865206f776e6572604482015260640160405180910390fd5b8051620001e190600e906020840190620004f4565b5050565b620001e18282604051806020016040528060008152506200020760201b60201c565b6200021683838360016200021b565b505050565b6000546001600160a01b0385166200024557604051622e076360e81b815260040160405180910390fd5b83620002645760405163b562e8dd60e01b815260040160405180910390fd5b6001600160a01b038516600081815260056020908152604080832080546001600160801b031981166001600160401b038083168c018116918217680100000000000000006001600160401b031990941690921783900481168c01811690920217909155858452600490925290912080546001600160e01b031916909217600160a01b4290921691909102179055808085018380156200031d57506200031d876001600160a01b0316620003e460201b620016641760201c565b156200039d575b60405182906001600160a01b0389169060009060008051602062002eb3833981519152908290a460018201916200036190600090899088620003f3565b6200037f576040516368d2bf6b60e11b815260040160405180910390fd5b80821415620003245782600054146200039757600080fd5b620003d3565b5b6040516001830192906001600160a01b0389169060009060008051602062002eb3833981519152908290a4808214156200039e575b506000555050505050565b50505050565b6001600160a01b03163b151590565b604051630a85bd0160e11b81526000906001600160a01b0385169063150b7a02906200042a90339089908890889060040162000728565b602060405180830381600087803b1580156200044557600080fd5b505af192505050801562000478575060408051601f3d908101601f1916820190925262000475918101906200077e565b60015b620004d7573d808015620004a9576040519150601f19603f3d011682016040523d82523d6000602084013e620004ae565b606091505b508051620004cf576040516368d2bf6b60e11b815260040160405180910390fd5b805181602001fd5b6001600160e01b031916630a85bd0160e11b149050949350505050565b8280546200050290620007b1565b90600052602060002090601f01602090048101928262000526576000855562000571565b82601f106200054157805160ff191683800117855562000571565b8280016001018555821562000571579182015b828111156200057157825182559160200191906001019062000554565b506200057f92915062000583565b5090565b5b808211156200057f576000815560010162000584565b634e487b7160e01b600052604160045260246000fd5b60005b83811015620005cd578181015183820152602001620005b3565b83811115620003de5750506000910152565b600082601f830112620005f157600080fd5b81516001600160401b03808211156200060e576200060e6200059a565b604051601f8301601f19908116603f011681019082821181831017156200063957620006396200059a565b816040528381528660208588010111156200065357600080fd5b62000666846020830160208901620005b0565b9695505050505050565b600080600080600080600060e0888a0312156200068c57600080fd5b87516001600160401b0380821115620006a457600080fd5b620006b28b838c01620005df565b985060208a0151915080821115620006c957600080fd5b620006d78b838c01620005df565b975060408a0151965060608a0151955060808a0151945060a08a0151935060c08a01519150808211156200070a57600080fd5b50620007198a828b01620005df565b91505092959891949750929550565b600060018060a01b038087168352808616602084015250836040830152608060608301528251806080840152620007678160a0850160208701620005b0565b601f01601f19169190910160a00195945050505050565b6000602082840312156200079157600080fd5b81516001600160e01b031981168114620007aa57600080fd5b9392505050565b600181811c90821680620007c657607f821691505b60208210811415620007e857634e487b7160e01b600052602260045260246000fd5b50919050565b6126b580620007fe6000396000f3fe6080604052600436106102675760003560e01c806370a0823111610144578063b767a098116100b6578063db4bec441161007a578063db4bec44146106df578063e0a808531461070f578063e985e9c51461072f578063efbd73f414610778578063f2fde38b14610798578063fbe03549146107b857600080fd5b8063b767a09814610656578063b88d4fde14610676578063c87b56dd14610696578063d2cab056146106b6578063d5abeb01146106c957600080fd5b806394354fd01161010857806394354fd0146105c357806395d89b41146105d9578063a0712d68146105ee578063a22cb46514610601578063a45ba8e714610621578063b071401b1461063657600080fd5b806370a0823114610530578063715018a6146105505780637cb64759146105655780637ec4a659146105855780638da5cb5b146105a557600080fd5b80633ccfd60b116101dd57806351830227116101a1578063518302271461048d5780635503a0e8146104ad5780635c975abb146104c257806362b99ad4146104dc5780636352211e146104f15780636caede3d1461051157600080fd5b80633ccfd60b146103eb57806342842e0e14610400578063438b63001461042057806344a0d68a1461044d5780634fdd43cb1461046d57600080fd5b806316ba10e01161022f57806316ba10e01461034157806316c38b3c1461036157806318160ddd1461038157806323b872dd1461039f5780632eb4a7ab146103bf578063338f9d59146103d557600080fd5b806301ffc9a71461026c57806306fdde03146102a1578063081812fc146102c3578063095ea7b3146102fb57806313faede61461031d575b600080fd5b34801561027857600080fd5b5061028c610287366004611fc9565b6107cd565b60405190151581526020015b60405180910390f35b3480156102ad57600080fd5b506102b661081f565b604051610298919061203e565b3480156102cf57600080fd5b506102e36102de366004612051565b6108b1565b6040516001600160a01b039091168152602001610298565b34801561030757600080fd5b5061031b610316366004612086565b6108f5565b005b34801561032957600080fd5b50610333600f5481565b604051908152602001610298565b34801561034d57600080fd5b5061031b61035c36600461213b565b610983565b34801561036d57600080fd5b5061031b61037c366004612193565b6109cd565b34801561038d57600080fd5b50610333600154600054036000190190565b3480156103ab57600080fd5b5061031b6103ba3660046121ae565b610a0a565b3480156103cb57600080fd5b50610333600a5481565b3480156103e157600080fd5b5061033360125481565b3480156103f757600080fd5b5061031b610a15565b34801561040c57600080fd5b5061031b61041b3660046121ae565b610b10565b34801561042c57600080fd5b5061044061043b3660046121ea565b610b2b565b6040516102989190612205565b34801561045957600080fd5b5061031b610468366004612051565b610c72565b34801561047957600080fd5b5061031b61048836600461213b565b610ca1565b34801561049957600080fd5b5060135461028c9062010000900460ff1681565b3480156104b957600080fd5b506102b6610cde565b3480156104ce57600080fd5b5060135461028c9060ff1681565b3480156104e857600080fd5b506102b6610d6c565b3480156104fd57600080fd5b506102e361050c366004612051565b610d79565b34801561051d57600080fd5b5060135461028c90610100900460ff1681565b34801561053c57600080fd5b5061033361054b3660046121ea565b610d8b565b34801561055c57600080fd5b5061031b610dd9565b34801561057157600080fd5b5061031b610580366004612051565b610e0f565b34801561059157600080fd5b5061031b6105a036600461213b565b610e3e565b3480156105b157600080fd5b506008546001600160a01b03166102e3565b3480156105cf57600080fd5b5061033360115481565b3480156105e557600080fd5b506102b6610e7b565b61031b6105fc366004612051565b610e8a565b34801561060d57600080fd5b5061031b61061c366004612249565b610fa7565b34801561062d57600080fd5b506102b661103d565b34801561064257600080fd5b5061031b610651366004612051565b61104a565b34801561066257600080fd5b5061031b610671366004612193565b611079565b34801561068257600080fd5b5061031b61069136600461227c565b6110bd565b3480156106a257600080fd5b506102b66106b1366004612051565b61110e565b61031b6106c43660046122f7565b61127e565b3480156106d557600080fd5b5061033360105481565b3480156106eb57600080fd5b5061028c6106fa3660046121ea565b600b6020526000908152604090205460ff1681565b34801561071b57600080fd5b5061031b61072a366004612193565b6114e3565b34801561073b57600080fd5b5061028c61074a366004612375565b6001600160a01b03918216600090815260076020908152604080832093909416825291909152205460ff1690565b34801561078457600080fd5b5061031b61079336600461239f565b611529565b3480156107a457600080fd5b5061031b6107b33660046121ea565b6115c9565b3480156107c457600080fd5b50601254610333565b60006001600160e01b031982166380ac58cd60e01b14806107fe57506001600160e01b03198216635b5e139f60e01b145b8061081957506301ffc9a760e01b6001600160e01b03198316145b92915050565b60606002805461082e906123c2565b80601f016020809104026020016040519081016040528092919081815260200182805461085a906123c2565b80156108a75780601f1061087c576101008083540402835291602001916108a7565b820191906000526020600020905b81548152906001019060200180831161088a57829003601f168201915b5050505050905090565b60006108bc82611673565b6108d9576040516333d1c03960e21b815260040160405180910390fd5b506000908152600660205260409020546001600160a01b031690565b600061090082610d79565b9050806001600160a01b0316836001600160a01b031614156109355760405163250fdee360e21b815260040160405180910390fd5b336001600160a01b038216148015906109555750610953813361074a565b155b15610973576040516367d9dca160e11b815260040160405180910390fd5b61097e8383836116ac565b505050565b6008546001600160a01b031633146109b65760405162461bcd60e51b81526004016109ad906123fd565b60405180910390fd5b80516109c990600d906020840190611f1a565b5050565b6008546001600160a01b031633146109f75760405162461bcd60e51b81526004016109ad906123fd565b6013805460ff1916911515919091179055565b61097e838383611708565b6008546001600160a01b03163314610a3f5760405162461bcd60e51b81526004016109ad906123fd565b60026009541415610a925760405162461bcd60e51b815260206004820152601f60248201527f5265656e7472616e637947756172643a207265656e7472616e742063616c6c0060448201526064016109ad565b60026009556000610aab6008546001600160a01b031690565b6001600160a01b03164760405160006040518083038185875af1925050503d8060008114610af5576040519150601f19603f3d011682016040523d82523d6000602084013e610afa565b606091505b5050905080610b0857600080fd5b506001600955565b61097e838383604051806020016040528060008152506110bd565b60606000610b3883610d8b565b90506000816001600160401b03811115610b5457610b546120b0565b604051908082528060200260200182016040528015610b7d578160200160208202803683370190505b50905060016000805b8482108015610b9757506010548311155b15610c6757600083815260046020908152604091829020825160608101845290546001600160a01b0381168252600160a01b81046001600160401b031692820192909252600160e01b90910460ff161580159282018390529091610c04575080516001600160a01b031615155b15610c0e57805191505b876001600160a01b0316826001600160a01b03161415610c545783858481518110610c3b57610c3b612432565b602090810291909101015282610c508161245e565b9350505b83610c5e8161245e565b94505050610b86565b509195945050505050565b6008546001600160a01b03163314610c9c5760405162461bcd60e51b81526004016109ad906123fd565b600f55565b6008546001600160a01b03163314610ccb5760405162461bcd60e51b81526004016109ad906123fd565b80516109c990600e906020840190611f1a565b600d8054610ceb906123c2565b80601f0160208091040260200160405190810160405280929190818152602001828054610d17906123c2565b8015610d645780601f10610d3957610100808354040283529160200191610d64565b820191906000526020600020905b815481529060010190602001808311610d4757829003601f168201915b505050505081565b600c8054610ceb906123c2565b6000610d848261191c565b5192915050565b60006001600160a01b038216610db4576040516323d3ad8160e21b815260040160405180910390fd5b506001600160a01b03166000908152600560205260409020546001600160401b031690565b6008546001600160a01b03163314610e035760405162461bcd60e51b81526004016109ad906123fd565b610e0d6000611a43565b565b6008546001600160a01b03163314610e395760405162461bcd60e51b81526004016109ad906123fd565b600a55565b6008546001600160a01b03163314610e685760405162461bcd60e51b81526004016109ad906123fd565b80516109c990600c906020840190611f1a565b60606003805461082e906123c2565b80600081118015610e9d57506011548111155b610eb95760405162461bcd60e51b81526004016109ad90612479565b60105481610ece600154600054036000190190565b610ed891906124a7565b1115610ef65760405162461bcd60e51b81526004016109ad906124bf565b8180600f54610f0591906124ed565b341015610f4a5760405162461bcd60e51b8152602060048201526013602482015272496e73756666696369656e742066756e64732160681b60448201526064016109ad565b60135460ff1615610f9d5760405162461bcd60e51b815260206004820152601760248201527f54686520636f6e7472616374206973207061757365642100000000000000000060448201526064016109ad565b61097e3384611a95565b6001600160a01b038216331415610fd15760405163b06307db60e01b815260040160405180910390fd5b3360008181526007602090815260408083206001600160a01b03871680855290835292819020805460ff191686151590811790915590519081529192917f17307eab39ab6107e8899845ad3d59bd9653f200f220920489ca2b5937696c31910160405180910390a35050565b600e8054610ceb906123c2565b6008546001600160a01b031633146110745760405162461bcd60e51b81526004016109ad906123fd565b601155565b6008546001600160a01b031633146110a35760405162461bcd60e51b81526004016109ad906123fd565b601380549115156101000261ff0019909216919091179055565b6110c8848484611708565b6001600160a01b0383163b151580156110ea57506110e884848484611aaf565b155b15611108576040516368d2bf6b60e11b815260040160405180910390fd5b50505050565b606061111982611673565b61117d5760405162461bcd60e51b815260206004820152602f60248201527f4552433732314d657461646174613a2055524920717565727920666f72206e6f60448201526e3732bc34b9ba32b73a103a37b5b2b760891b60648201526084016109ad565b60135462010000900460ff1661121f57600e805461119a906123c2565b80601f01602080910402602001604051908101604052809291908181526020018280546111c6906123c2565b80156112135780601f106111e857610100808354040283529160200191611213565b820191906000526020600020905b8154815290600101906020018083116111f657829003601f168201915b50505050509050919050565b6000611229611ba7565b905060008151116112495760405180602001604052806000815250611277565b8061125384611bb6565b600d6040516020016112679392919061250c565b6040516020818303038152906040525b9392505050565b8260008111801561129157506011548111155b6112ad5760405162461bcd60e51b81526004016109ad90612479565b601054816112c2600154600054036000190190565b6112cc91906124a7565b11156112ea5760405162461bcd60e51b81526004016109ad906124bf565b8380600f546112f991906124ed565b34101561133e5760405162461bcd60e51b8152602060048201526013602482015272496e73756666696369656e742066756e64732160681b60448201526064016109ad565b601354610100900460ff166113a05760405162461bcd60e51b815260206004820152602260248201527f5468652077686974656c6973742073616c65206973206e6f7420656e61626c65604482015261642160f01b60648201526084016109ad565b336000908152600b602052604090205460ff16156114005760405162461bcd60e51b815260206004820152601860248201527f4164647265737320616c726561647920636c61696d656421000000000000000060448201526064016109ad565b6040516bffffffffffffffffffffffff193360601b16602082015260009060340160405160208183030381529060405280519060200120905061147a85858080602002602001604051908101604052809392919081815260200183836020028082843760009201919091525050600a549150849050611cb3565b6114b75760405162461bcd60e51b815260206004820152600e60248201526d496e76616c69642070726f6f662160901b60448201526064016109ad565b336000818152600b60205260409020805460ff191660011790556114db9087611a95565b505050505050565b6008546001600160a01b0316331461150d5760405162461bcd60e51b81526004016109ad906123fd565b60138054911515620100000262ff000019909216919091179055565b8160008111801561153c57506011548111155b6115585760405162461bcd60e51b81526004016109ad90612479565b6010548161156d600154600054036000190190565b61157791906124a7565b11156115955760405162461bcd60e51b81526004016109ad906124bf565b6008546001600160a01b031633146115bf5760405162461bcd60e51b81526004016109ad906123fd565b61097e8284611a95565b6008546001600160a01b031633146115f35760405162461bcd60e51b81526004016109ad906123fd565b6001600160a01b0381166116585760405162461bcd60e51b815260206004820152602660248201527f4f776e61626c653a206e6577206f776e657220697320746865207a65726f206160448201526564647265737360d01b60648201526084016109ad565b61166181611a43565b50565b6001600160a01b03163b151590565b600081600111158015611687575060005482105b8015610819575050600090815260046020526040902054600160e01b900460ff161590565b60008281526006602052604080822080546001600160a01b0319166001600160a01b0387811691821790925591518593918516917f8c5be1e5ebec7d5bd14f71427d1e84f3dd0314c0f7b2291e5b200ac8c7c3b92591a4505050565b60006117138261191c565b80519091506000906001600160a01b0316336001600160a01b0316148061174157508151611741903361074a565b8061175c575033611751846108b1565b6001600160a01b0316145b90508061177c57604051632ce44b5f60e11b815260040160405180910390fd5b846001600160a01b031682600001516001600160a01b0316146117b15760405162a1148160e81b815260040160405180910390fd5b6001600160a01b0384166117d857604051633a954ecd60e21b815260040160405180910390fd5b6117e860008484600001516116ac565b6001600160a01b038581166000908152600560209081526040808320805467ffffffffffffffff198082166001600160401b0392831660001901831617909255898616808652838620805493841693831660019081018416949094179055898652600490945282852080546001600160e01b031916909417600160a01b4290921691909102179092559086018083529120549091166118d2576000548110156118d257825160008281526004602090815260409091208054918601516001600160401b0316600160a01b026001600160e01b03199092166001600160a01b03909316929092171790555b5082846001600160a01b0316866001600160a01b03167fddf252ad1be2c89b69c2b068fc378daa952ba7f163c4a11628f55a4df523b3ef60405160405180910390a45b5050505050565b6040805160608101825260008082526020820181905291810191909152818060011115801561194c575060005481105b15611a2a57600081815260046020908152604091829020825160608101845290546001600160a01b0381168252600160a01b81046001600160401b031692820192909252600160e01b90910460ff16151591810182905290611a285780516001600160a01b0316156119bf579392505050565b5060001901600081815260046020908152604091829020825160608101845290546001600160a01b038116808352600160a01b82046001600160401b031693830193909352600160e01b900460ff1615159281019290925215611a23579392505050565b6119bf565b505b604051636f96cda160e11b815260040160405180910390fd5b600880546001600160a01b038381166001600160a01b0319831681179093556040519116919082907f8be0079c531659141344cd1fd0a4f28419497f9722a3daafe3b4186f6b6457e090600090a35050565b6109c9828260405180602001604052806000815250611cc9565b604051630a85bd0160e11b81526000906001600160a01b0385169063150b7a0290611ae49033908990889088906004016125d0565b602060405180830381600087803b158015611afe57600080fd5b505af1925050508015611b2e575060408051601f3d908101601f19168201909252611b2b9181019061260d565b60015b611b89573d808015611b5c576040519150601f19603f3d011682016040523d82523d6000602084013e611b61565b606091505b508051611b81576040516368d2bf6b60e11b815260040160405180910390fd5b805181602001fd5b6001600160e01b031916630a85bd0160e11b1490505b949350505050565b6060600c805461082e906123c2565b606081611bda5750506040805180820190915260018152600360fc1b602082015290565b8160005b8115611c045780611bee8161245e565b9150611bfd9050600a83612640565b9150611bde565b6000816001600160401b03811115611c1e57611c1e6120b0565b6040519080825280601f01601f191660200182016040528015611c48576020820181803683370190505b5090505b8415611b9f57611c5d600183612654565b9150611c6a600a8661266b565b611c759060306124a7565b60f81b818381518110611c8a57611c8a612432565b60200101906001600160f81b031916908160001a905350611cac600a86612640565b9450611c4c565b600082611cc08584611cd6565b14949350505050565b61097e8383836001611d4a565b600081815b8451811015611d42576000858281518110611cf857611cf8612432565b60200260200101519050808311611d1e5760008381526020829052604090209250611d2f565b600081815260208490526040902092505b5080611d3a8161245e565b915050611cdb565b509392505050565b6000546001600160a01b038516611d7357604051622e076360e81b815260040160405180910390fd5b83611d915760405163b562e8dd60e01b815260040160405180910390fd5b6001600160a01b038516600081815260056020908152604080832080546fffffffffffffffffffffffffffffffff1981166001600160401b038083168c0181169182176801000000000000000067ffffffffffffffff1990941690921783900481168c01811690920217909155858452600490925290912080546001600160e01b031916909217600160a01b429092169190910217905580808501838015611e4257506001600160a01b0387163b15155b15611ecb575b60405182906001600160a01b038916906000907fddf252ad1be2c89b69c2b068fc378daa952ba7f163c4a11628f55a4df523b3ef908290a4611e936000888480600101955088611aaf565b611eb0576040516368d2bf6b60e11b815260040160405180910390fd5b80821415611e48578260005414611ec657600080fd5b611f11565b5b6040516001830192906001600160a01b038916906000907fddf252ad1be2c89b69c2b068fc378daa952ba7f163c4a11628f55a4df523b3ef908290a480821415611ecc575b50600055611915565b828054611f26906123c2565b90600052602060002090601f016020900481019282611f485760008555611f8e565b82601f10611f6157805160ff1916838001178555611f8e565b82800160010185558215611f8e579182015b82811115611f8e578251825591602001919060010190611f73565b50611f9a929150611f9e565b5090565b5b80821115611f9a5760008155600101611f9f565b6001600160e01b03198116811461166157600080fd5b600060208284031215611fdb57600080fd5b813561127781611fb3565b60005b83811015612001578181015183820152602001611fe9565b838111156111085750506000910152565b6000815180845261202a816020860160208601611fe6565b601f01601f19169290920160200192915050565b6020815260006112776020830184612012565b60006020828403121561206357600080fd5b5035919050565b80356001600160a01b038116811461208157600080fd5b919050565b6000806040838503121561209957600080fd5b6120a28361206a565b946020939093013593505050565b634e487b7160e01b600052604160045260246000fd5b60006001600160401b03808411156120e0576120e06120b0565b604051601f8501601f19908116603f01168101908282118183101715612108576121086120b0565b8160405280935085815286868601111561212157600080fd5b858560208301376000602087830101525050509392505050565b60006020828403121561214d57600080fd5b81356001600160401b0381111561216357600080fd5b8201601f8101841361217457600080fd5b611b9f848235602084016120c6565b8035801515811461208157600080fd5b6000602082840312156121a557600080fd5b61127782612183565b6000806000606084860312156121c357600080fd5b6121cc8461206a565b92506121da6020850161206a565b9150604084013590509250925092565b6000602082840312156121fc57600080fd5b6112778261206a565b6020808252825182820181905260009190848201906040850190845b8181101561223d57835183529284019291840191600101612221565b50909695505050505050565b6000806040838503121561225c57600080fd5b6122658361206a565b915061227360208401612183565b90509250929050565b6000806000806080858703121561229257600080fd5b61229b8561206a565b93506122a96020860161206a565b92506040850135915060608501356001600160401b038111156122cb57600080fd5b8501601f810187136122dc57600080fd5b6122eb878235602084016120c6565b91505092959194509250565b60008060006040848603121561230c57600080fd5b8335925060208401356001600160401b038082111561232a57600080fd5b818601915086601f83011261233e57600080fd5b81358181111561234d57600080fd5b8760208260051b850101111561236257600080fd5b6020830194508093505050509250925092565b6000806040838503121561238857600080fd5b6123918361206a565b91506122736020840161206a565b600080604083850312156123b257600080fd5b823591506122736020840161206a565b600181811c908216806123d657607f821691505b602082108114156123f757634e487b7160e01b600052602260045260246000fd5b50919050565b6020808252818101527f4f776e61626c653a2063616c6c6572206973206e6f7420746865206f776e6572604082015260600190565b634e487b7160e01b600052603260045260246000fd5b634e487b7160e01b600052601160045260246000fd5b600060001982141561247257612472612448565b5060010190565b602080825260149082015273496e76616c6964206d696e7420616d6f756e742160601b604082015260600190565b600082198211156124ba576124ba612448565b500190565b6020808252601490820152734d617820737570706c792065786365656465642160601b604082015260600190565b600081600019048311821515161561250757612507612448565b500290565b60008451602061251f8285838a01611fe6565b8551918401916125328184848a01611fe6565b8554920191600090600181811c908083168061254f57607f831692505b85831081141561256d57634e487b7160e01b85526022600452602485fd5b8080156125815760018114612592576125bf565b60ff198516885283880195506125bf565b60008b81526020902060005b858110156125b75781548a82015290840190880161259e565b505083880195505b50939b9a5050505050505050505050565b6001600160a01b038581168252841660208201526040810183905260806060820181905260009061260390830184612012565b9695505050505050565b60006020828403121561261f57600080fd5b815161127781611fb3565b634e487b7160e01b600052601260045260246000fd5b60008261264f5761264f61262a565b500490565b60008282101561266657612666612448565b500390565b60008261267a5761267a61262a565b50069056fea26469706673582212202e3c72d115b9694e7cfc31aebc861ed581e157617ae4a1064ac7fc924392b24d64736f6c63430008090033ddf252ad1be2c89b69c2b068fc378daa952ba7f163c4a11628f55a4df523b3ef",
  "linkReferences": {},
  "deployedLinkReferences": {}
}